:020000040800F2
:100000003807002045010008EF1200086B110008B6
:10001000ED120008B1010008911600080000000070
:10002000000000000000000000000000F3120008C3
:10003000B301000800000000F1120008F5120008EA
:100040005F0100085F0100085F0100085F01000810
:100050005F0100085F0100085F0100085F01000800
:100060005F0100085F010008B50100085F0100089A
:100070005F0100085F0100085F0100085F010008E0
:100080005F0100085F0100085F0100085F010008D0
:100090005F0100085F0100085F010008BB01000864
:1000A0005F0100085F0100085F0100085F010008B0
:1000B0005F0100085F0100085F0100085F010008A0
:1000C0005F0100085F0100085F0100085F01000890
:1000D0005F0100085F0100086D1600085F0100085D
:1000E0005F0100085F0100085F0100085F01000870
:1000F0005F0100085F0100085F0100085F01000860
:100100005F0100085F0100085F0100085F0100084F
:100110005F0100085F010008911300085F010008FB
:100120005F0100085F0100085F0100085F0100082F
:10013000DFF80CD000F02AF800480047DD1C00086A
:10014000380700200648804706480047FEE7FEE7DC
:10015000FEE7FEE7FEE7FEE7FEE7FEE7FEE7FEE777
:100160004913000831010008D2B201E000F8012B68
:10017000491EFBD270470022F6E710B513460A4627
:1001800004461946FFF7F0FF204610BD064C074D08
:1001900006E0E06840F0010394E807009847103457
:1001A000AC42F6D3FFF7C8FF64240008842400089B
:1001B000FEE77047102000F003B910B5202000F0D2
:1001C000FFF8402000F0FCF8BDE81040802000F06F
:1001D000F7B870472DE9F05F90F82110002402294C
:1001E00003D004218163012485E001680A6822F0BC
:1001F0000E020A6001680A6822F001020A603F4E9E
:100200003E4FB215DFF8F4C0DFF8F090DFF8ECA055
:10021000DFF8E8B0DFF8E4E00168783F1301150289
:10022000ACF1640CA9F15009AAF13C0AABF1280B1E
:10023000AEF1140E4FF48018B14227D9B9420ED056
:10024000614512D049451DD0514518D0594518D0A7
:10025000714501D1424615E0294EB14201D101223A
:1002600010E0274E1436B14201D110220AE0244E8C
:100270002836B14206D0224A3C32914201D11A4678
:1002800000E02A461E49091F0A602BE0B94213D03C
:10029000614517D0494522D051451DD059451DD043
:1002A000714501D142461AE0B14202D14FF080724D
:1002B00015E0134EB14201D1012210E0104E143668
:1002C000B14201D110220AE00D4E2836B14206D0CB
:1002D0000B4A3C32914201D11A4600E02A460749B6
:1002E00080394A60012180F82110002180F8201017
:1002F000416B01B188472046BDE8F09F8000024075
:100300000804024070B5044600F06CF90546601C14
:1003100002D004480078044400F064F9401BA04275
:10032000FAD370BD080000202DE9F0410126022714
:10033000214D224C10280BD0202818D0402824D042
:10034000802812D18021284600F042F958B32BE0D2
:100350001021284600F03CF900B9267010212846EB
:1003600000F036F9012800D12770BDE8F081202186
:10037000284600F02DF900B966702021284600F0CB
:1003800027F90128F1D16770EFE74021284600F0F6
:100390001FF900B9A6704021284600F019F901287C
:1003A000E3D1A770E1E7E6708021284600F010F95C
:1003B0000128DAD1E770D8E70008014003000020E7
:1003C000044910B50A68024202D00860FFF7ACFF8A
:1003D00010BD0000140401402DE9F84FDFF8C8916A
:1003E000002409F1040A0AF1040B23460F270BF13C
:1003F000040ED1E00125A54006EA0502AA4276D105
:10040000DFF8A8C14E68A6EB0C0866452BD00DDCC2
:10041000032E34D005DC36B3012E19D0022E2FD195
:100420001BE0112E16D0122E2AD119E0B8F5881F24
:1004300019D006DCB8F5803F15D0B8F5801F1FD164
:1004400011E0B8F5001F0ED0B8F5041F18D10AE06E
:10045000CB6815E0CB681B1D12E0CB6808330FE0BA
:10046000CB680C330CE08B682BB1012B4FF00803E9
:1004700003D0456104E0042302E0056100E00023AD
:10048000FF2A01D8064601E000F104064FEA840580
:1004900001D9A5F12005D6F8008007FA05FC28EA65
:1004A0000C0803FA05F548EA0508C6F800804D680F
:1004B000ED0070D53E4DAE6946F00106AE61AD6906
:1004C00024F0030605F0010500953A4D06EB050CF6
:1004D000DCF80850A607360F07FA06F825EA0805E3
:1004E000DFF8D480404503D14FF0000825E052E00A
:1004F000DFF8C880404502D14FF001081DE0DFF869
:10050000C080404502D14FF0020816E0DFF8B48009
:10051000404502D14FF003080FE0DFF8AC804045C2
:1005200002D14FF0040808E0DFF8A080404502D176
:100530004FF0050801E04FF0060808FA06F848EA0F
:100540000508CCF808804D68D9F80060ED034D46E9
:1005500001D5164300E096432E604D68DAF800603E
:10056000AD03554601D5164300E096432E604D6815
:10057000DBF80060ED025D4601D5164300E09643CE
:100580002E604D68DEF80060AD02754601D5164359
:1005900000E096432E60641C0A681646E2407FF431
:1005A00029AFBDE8F88F00000004014000001110E1
:1005B000001002400000014000080140000C014012
:1005C000001001400014014000180140001C0140CF
:1005D0008068084000D0012070470AB1016170476F
:1005E0000904FBE70148806870470000080000200C
:1005F0000248816802781144816070470800002039
:10060000074810B5016841F010010160032000F0B7
:1006100075F8002000F006F800F024F8002010BD66
:100620000020024070B50D4D04464FF47A712878D1
:10063000B1FBF0F00A490968B1FBF0F000F0ECFA08
:1006400048B9102C07D200222146501E00F036F87F
:1006500000206C6070BD012070BD0000080000200B
:10066000140000200C4808B5816941F00101816146
:10067000816901F001010091C16941F08051C161BE
:10068000C06900F0805000900448416821F0E061AA
:1006900041F00071416008BD0010024000000140BF
:1006A000002809DB00F01F02012191404009800071
:1006B00000F1E020C0F8001170470000F0B40E4BCC
:1006C0001B680C46C3F30223C3F10705042D00D9B0
:1006D0000425191D072901D2002300E0DB1E012695
:1006E00006FA05F1491E214099409E40761E1640AB
:1006F0003143F0BC00F0D6BF0CED00E0064900F03D
:10070000070208684FF6FF03184040EA0220034A38
:1007100010430860704700000CED00E00000FA058F
:100720002DE9F0470F46050061D0434E306800F0D8
:100730000700B84209D2306820F007003843306023
:10074000306800F00700B84251D128683B4C81075F
:1007500012D5400703D5606840F4E06060602878F7
:10076000000703D5606840F4605060606068A96865
:1007700020F0F000084360602878C00728D068683F
:10078000012810D02168022810D0890700292EDA0C
:10079000616821F0030101436160FFF723FF804698
:1007A00041F288390DE021688903EFE78901EDE71F
:1007B000FFF718FFA0EB0801494502D90320BDE867
:1007C000F0876068696800F00C00B0EB810FEFD132
:1007D000306800F00700B8420BD9306820F00700FD
:1007E00038433060306800F00700B84201D0012083
:1007F000E5E72878400705D56068E96820F4E060FF
:10080000084360602878000706D56068296920F4ED
:10081000605040EAC100606000F038F86168084A42
:10082000C1F30311515CC8400649086006480068DE
:10083000FFF7F8FE0020C2E700200240001002404F
:1008400044240008140000200C000020044805493E
:1008500000684968044AC1F30221515CC8407047EE
:1008600014000020001002405424000804480549E8
:1008700000684968044AC1F3C221515CC84070470E
:1008800014000020001002405424000812A185B07A
:100890000FC98DE80F0014A0144A00680490516835
:1008A000134801F00C03042B10D0082B0ED1C1F318
:1008B0008343C9031DF803000AD5516804AAC1F394
:1008C0004041515C0A4A5043B0FBF1F005B070471B
:1008D00008494843FAE7000002030405060708092F
:1008E0000A0B0C0D0E0F1010010200000010024048
:1008F00000127A0000093D002DE9F84F040070D085
:100900002078C04DC00749D06868C0F38100012835
:1009100007D06868C0F38100022809D16868C00365
:1009200006D52868800339D560680028E7D035E00F
:100930006068B0F5803F0BD010B1B0F5A02F11D09A
:10094000286820F480302860286820F4802002E0A5
:10095000286840F480302860606890B1FFF742FE5C
:1009600006460AE0286840F480202860F0E700BFCF
:10097000FFF738FE801B642873D828688003F7D5FA
:100980000CE0FFF72FFE064605E000BFFFF72AFE4A
:10099000801B6428F0D828688003F7D420789A4E0A
:1009A00080074FF001094FF0000839D5686810F052
:1009B0000C0F07D06868C0F38100022809D168686D
:1009C000C00306D42868800714D52069012808D1FF
:1009D00010E02069B0B1C6F80090FFF703FE0746AB
:1009E00005E00AE1FFF7FEFDC01B0228C4D8286815
:1009F0008007F7D52868616920F0F80040EAC10057
:100A000028600DE0C6F80080FFF7ECFD074604E023
:100A1000FFF7E8FDC01B022823D828688007F7D419
:100A2000207800072CD57948A169D9B1C0F8009089
:100A3000FFF7D8FD074604E0FFF7D4FDC01B0228EE
:100A40000FD8686A8007F7D571484FF4FA510068EB
:100A5000B0FBF1F0009000BF0098411E0091FAD267
:100A60000EE080E0C0F80080FFF7BCFD074604E020
:100A7000FFF7B8FDC01B022875D8686A8007F7D455
:100A80002078400760D5E8690027C00008D4E869ED
:100A900040F08050E861E869012700F08050009044
:100AA0005C480168C90513D40168834641F480712C
:100AB0000160FFF797FD824606E000BFFFF792FD59
:100AC000A0EB0A0064284ED8DBF80000C005F5D57D
:100AD000E06801280AD008B1052813D0286A20F060
:100AE00001002862286A20F0040002E0286A40F031
:100AF00001002862E06841F2883B98B1FFF772FD7F
:100B000082460BE0286A40F004002862EEE700BF4E
:100B1000FFF768FDA0EB0A0159455AD8286A8007FB
:100B2000F6D50CE0FFF75EFD824605E0FFF75AFDC3
:100B3000A0EB0A0159454CD8286A8007F6D41FB1AA
:100B4000E86920F08050E861E06988B36968C1F322
:100B50008101022944D00228C6F8608004D0FFF742
:100B600041FD044638E034E0FFF73CFD074604E071
:100B7000FFF738FDC01B02282BD828688001F7D466
:100B8000206AB0F5803F05D16868A16820F4003084
:100B900008436860D4E908010843696821F47411C6
:100BA00008436860C6F86090FFF71CFD044606E045
:100BB00025E000BFFFF716FD001B022809D82868B2
:100BC0008001F7D51BE000BFFFF70CFD001B0228DA
:100BD00002D90320BDE8F88F28688001F4D40EE024
:100BE0000128F7D06868226A00F48031914204D16C
:100BF000616A00F47010884201D00120EAE7002009
:100C0000E8E7000000100240000042428004424237
:100C1000140000200070004010B5401EB0F1807F2D
:100C200001D3012010BD4FF0E02460610F21601757
:100C300000F038FD0020A06107202061002010BDD9
:100C40007047704770B590F83C20012A19D00124F4
:100C500000F83C4F0222427050F83C3C5A689D68B4
:100C600022F070060A684968324325F0800529435E
:100C70005A6050F83C2C9160447000210170084685
:100C800070BD022070BD10B5040003D094F83D0083
:100C900010B107E0012010BD002084F83C00204680
:100CA00000F00CF8022084F83D00211D206800F0BF
:100CB00075FB012084F83D00002010BD08B50068D8
:100CC0000B49884212D10B48C16941F01001C16142
:100CD000C069002200F01000009011463620FFF796
:100CE000EDFCBDE808403620FFF7DABC08BD000087
:100CF0000010004000100240704770B504460068C4
:100D000001694FF00005C943890715D4C168C9437B
:100D1000890711D4E91E01610120207720688069CC
:100D20008007204602D0FFF7E7FF04E000F098F8C4
:100D3000204600F096F8257720680169C9434907E5
:100D400017D4C168C943490713D46FF00401016186
:100D5000022020772068806910F4407F204602D06E
:100D6000FFF7CAFF04E000F07BF8204600F079F8B6
:100D7000257720680169C943090716D4C168C943AA
:100D8000090712D46FF00801016104202077206860
:100D9000C0698007204602D0FFF7AEFF04E000F0F4
:100DA0005FF8204600F05DF8257720680169C943A7
:100DB000C90617D4C168C943C90613D46FF010011E
:100DC0000161082020772068C06910F4407F204628
:100DD00002D0FFF791FF04E000F042F8204600F057
:100DE00040F8257720680169C943C90708D1C1685F
:100DF000C943C90704D1891E0161204600F032F8B9
:100E000020680169C943090609D4C168C9430906B4
:100E100005D46FF0800101612046FFF711FF2068C3
:100E20000169C943490609D4C168C943490605D4C3
:100E30006FF040010161204600F015F8206801695B
:100E4000C94389060BD4C168C943890607D46FF02A
:100E5000200101612046BDE87040FFF7F2BE70BD81
:100E600070477047704770477047000070B5026860
:100E700004461068D168536910F00F0F50D003F08A
:100E8000010501F4907635435DD0C20705D0CA054F
:100E900003D5E26B42F00102E263420705D5DA07AF
:100EA00003D0E26B42F00202E263820705D5DA0763
:100EB00003D0E26B42F00402E263020705D5DA07D1
:100EC00003D0E26B42F00802E263E26B002A33D007
:100ED000800604D5880602D5204600F0BBFA2068BB
:100EE0004069E16BC0F38010090700D428B32046A5
:100EF00000F0A2FA2068416949061AD5416921F03B
:100F000040014161606BA0B11B494163606BFFF719
:100F100061F9002810D0606B416BBDE87040084754
:100F2000830610D58B060ED52046BDE8704000F034
:100F300091BA2046FFF798FF70BD2046FFF794FF57
:100F40000020E06370BD030606D50B0604D52046DD
:100F5000BDE8704000F026BB4006F3D54806F1D549
:100F6000D168204621F04001D160202184F8391059
:100F700000F0FAF870BD00002914000870B50400F4
:100F800004D094F83900002510B106E0012070BDAE
:100F900084F83850204600F023F8242084F83900E3
:100FA0002068C16821F40051C160204600F09EFA1B
:100FB0002068016921F4904101612068416921F0B4
:100FC0002A0141612068C16841F40051C160E563B4
:100FD000202084F8390084F83A00002070BD000019
:100FE00070B586B0002400940194029403942B4EB3
:100FF00003682B49022003222A4DB34221D18B6979
:1010000043F480438B618B6903F4804304938B69C1
:1010100043F004038B618969039201F00401049198
:101020000102CDE9001069462846FFF7D5F92815D9
:10103000CDE90004694628460294FFF7CDF906B0D1
:1010400070BD194EB342FAD1CB6943F40033CB6182
:10105000CB6903F4003304938B6943F004038B6181
:101060008969039201F0040104910421CDE9001083
:1010700069462846FFF7B0F90820CDE900040120B1
:10108000029069462846FFF7A7F90022114626205C
:10109000FFF714FB2620FFF703FBD0E700380140E1
:1010A00000100240000801400044004070472DE954
:1010B000F843044690F839001F4616460D4620288E
:1010C00050D1A5B19EB194F8380001284AD0012032
:1010D00084F838004FF00008C4F83C80212084F8E0
:1010E0003900FFF77FFAA6848146E68426E00120D6
:1010F000BDE8F883E08C401EE084A0684B46B0F564
:10110000805F4FF000024FF080012046009703D02F
:1011100000F079FAE8B90DE000F075FAC8B928884E
:101120002168C0F308004860206908B16D1C05E023
:10113000AD1C03E0216815F8010B4860E08C002825
:10114000D8D14B46002240212046009700F05BFAA0
:1011500008B10320CCE7202084F8390084F83880D7
:101160000020C5E70220C3E77047FEE7F0B585B071
:1011700000242C480094019402940394816941F066
:1011800020018161816901F020010491816941F0B0
:1011900004018161816901F004010491816941F0D8
:1011A000100181618069204D00F010004FF4E0577C
:1011B0000490002239462846FFF70FFA1B4E002202
:1011C00004213046FFF709FAF02000901848CDE9D5
:1011D000010469461748FFF7FFF80097012702242A
:1011E000CDE90174694628460394FFF7F5F8042019
:1011F0000090CDE90174694630460394FFF7ECF89E
:10120000002211460A20FFF759FA0A20FFF748FA90
:10121000002211461720FFF751FA1720FFF740FA76
:1012200005B0F0BD00100240001001400014014064
:1012300000003110000801401CB500240E48009445
:101240000C49019401604721C0E9011440F2E731E3
:101250008461C160FFF717FD08B1FEF7BAFF009483
:10126000694605480194FFF7EDFC002801D0FEF720
:10127000B0FF1CBD00100040300000200C4810B52D
:101280000A4901604FF4E1314160002181600C2284
:10129000C160C0E904128161C161FFF76FFE0028DF
:1012A00003D0BDE81040FEF794BF10BD00380140E8
:1012B000700000200C4810B50A4901604FF4E1317C
:1012C0004160002181600C22C160C0E9041281618B
:1012D000C161FFF753FE002803D0BDE81040FEF7C0
:1012E00078BF10BD00440040B0000020FEE770470A
:1012F00070477047FFF77CB930B58FB0282168463A
:10130000FEF739FF14210AA8FEF735FF0121080472
:10131000CDE900100024029402250491CDE9075084
:101320004FF4E01009906846FFF7E6FA0F20CDE988
:101330000A056802CDE90C4002210AA80E94FFF7C5
:10134000EFF90FB030BD00000D48016841F0010118
:10135000016041680B4A1140416001680A4A11402E
:101360000160016821F480210160416821F4FE01DF
:1013700041604FF41F0181600449C0030860704759
:10138000001002400000FFF8FFFFF6FE08ED00E04D
:101390000148FFF7B2BC000030000020F0B5026841
:1013A0001C4B1D4D1D4E1E4F1E4C4FF0804C984245
:1013B00009D0A04207D0604505D0A84203D0B04272
:1013C00001D0B84204D122F0700E4A6842EA0E02FF
:1013D000984209D0A04207D0604505D0A84203D06A
:1013E000B04201D0B84203D122F44075CA682A4302
:1013F0004D6922F080022A4302608A68C2620A684C
:101400008262984201D0A04201D1096901630121A1
:101410004161F0BD002C0140000400400008004084
:10142000000C00400034014010B5406A0021C18525
:10143000C184FFF719FD10BD0168CA6822F49072DB
:10144000CA6001684A6922F001024A61202180F8DD
:101450003A10704710B590F83A10222901D00220B6
:1014600010BD8168B1F5805F11D001690029016864
:101470001FD0496801F07F03816A4A1C82620B70A9
:10148000C18D491E0904090CC18518D02BE00269E1
:10149000816A002A0268526805D0D2B20A80816A45
:1014A000491C8162ECE7C2F308020A80816A891C48
:1014B000F7E74A68816A4B1C83620A70E0E70168BB
:1014C000CA6822F02002CA600168CA6822F48072E9
:1014D000CA6001684A6922F001024A61202180F84D
:1014E0003A10FFF7E3FD002010BD00002DE9F041A8
:1014F000044600680169E26821F44051114301612A
:101500002169A0680843616908432168CA6841F2FB
:101510000C639A430243CA6020684169A26921F4BE
:101520004071114341611E4920686425322688427A
:1015300002D1FFF79BF901E0FFF788F900EBC0014A
:1015400001EB001160686FF018078000B1FBF0F24A
:10155000B2FBF5F2B1FBF0F37A4303EB8202B1FB8D
:10156000F0F306EB0212B2FBF5F2B3FBF5F302F077
:10157000F00202EB0312B1FBF0F3B1FBF0F0B0FBB1
:10158000F5F0784303EB800006EB0010B0FBF5F0BC
:10159000216800F00F0010448860BDE8F081000071
:1015A0000038014090F83910212901D002207047FD
:1015B0008168B1F5805F016A0BD04A1C0262026843
:1015C00009785160C18C491E0904090CC1840ED0F0
:1015D00017E009880268C1F3080151600169002918
:1015E000016A02D0491C0162ECE7891CFBE7016833
:1015F000CA6822F08002CA600068C16841F04001F8
:10160000C160002070472DE9F041984617460E460C
:101610000446069D1DE0681C1BD02DB1FEF7E2FFBD
:10162000A0EB0800A84214D92068C16821F4D07149
:10163000C1602068416921F001014161202084F8E6
:10164000390084F83A00002084F838000320BDE80F
:10165000F0812068006836EA000004D00020B8421B
:10166000D9D00020F3E70120F9E70000074810B5C2
:1016700000680168C943890603D44068C0B200F01D
:1016800019FEBDE810400148FFF7F0BBB000002094
:10169000FEE70000014A024900F023B8A11C00083F
:1016A0002C0000200907090E002804DB00F1E020CF
:1016B00080F80014704700F00F0000F1E02080F87F
:1016C000141D704702E008C8121F08C1002AFAD191
:1016D00070477047002001E001C1121F002AFBD1B2
:1016E00070472DE9F04116460F460446002503E0F9
:1016F0003946B047641C6D1C20780028F8D1284674
:10170000BDE8F081084810B50178012000F0A4FC84
:1017100006480178032000F0E3FC05480178BDE8A5
:101720001040652000F0BCBC00000020010000203B
:101730000200002001780A02417811430A028178F0
:10174000C078114340EA0120704700002DE9F84FAE
:101750003E49814601EB0905E87801243C4B0F28FE
:101760002BD2DFE800F008181C20292C2E2A682A2A
:101770002A2A2A2A6C001978002031B1012100F0B0
:101780007DFDC2B20321002012E0002100F076FDB1
:10179000C2B21C70F6E7BDE8F84F00F0FBBC0022B7
:1017A0000321022004E0A879D87000220321084612
:1017B000BDE8F84F00F018BE5C70BDE8F88F9C7073
:1017C000FBE768792979002640EA012730E000BF6D
:1017D0001E4809EB06010144087A497AAC1901EB6D
:1017E000002014F8068F1FFA80FBA078E17894F8A7
:1017F00001A001EB002080B2009000F06CFA002103
:10180000144A05E012F811C0C44503D0491CC9B2FE
:101810008142F7D302EB41004178514504D1211DAB
:101820004046009A00F0E0F906EB0B00001D86B27E
:10183000BE42CDD3C1E7BDE8F84FFFF763BFA8793B
:10184000E979BDE8F84F00F073BD0000F00000201A
:101850001C0000205C2400082DE9F05F00F06EFC05
:10186000DFF8B8816E4CDFF8BC91DFF8BCA101262F
:1018700000270546012806D01A2D32D0332D5DD021
:101880004C2D7CD089E0DFF8A4B100220421584619
:10189000FEF7A3FE00224FF480514046FEF79DFE66
:1018A00000224FF400614046FEF797FE00224FF4FD
:1018B00080614046FEF791FE2770012204215846C0
:1018C000FEF78BFE0121032000F00AFC00216520B9
:1018D00000F0E6FB267089F800608AF80070384650
:1018E00060E0002204215148FEF777FE4FF4805B50
:1018F000002259464046FEF770FE00224FF4006178
:101900004046FEF76AFE00224FF480614046FEF733
:1019100064FE2770012259464046FEF75EFE1A21FA
:10192000032000F0DDFB0121652000F0B9FB2670EB
:101930001A2089F800008AF800602EE000220421B5
:101940003A48FEF74AFE00224FF480514046FEF727
:1019500044FE4FF4006B002259464046FEF73DFE20
:1019600000224FF480614046FEF737FE27700122C7
:1019700059464046FEF731FE3321032000E010E0D7
:1019800000F0AEFB0221652000F08AFB33202670B8
:1019900089F8000002218AF800103846642D3BD0F7
:1019A00000E03046002108432DD0002204211F48CA
:1019B000FEF713FE00224FF48051C3464046FEF767
:1019C0000CFE00224FF400615846FEF706FE4FF46D
:1019D0008068002241465846FEF7FFFD277001222D
:1019E00041465846FEF7F9FD4C21032000F078FBF4
:1019F0000321652000F054FB26704C2189F800106B
:101A000003218AF800102946032000F069FB012811
:101A100000D00020BDE8F09F0121C4E70010014084
:101A200000000020010000200200002000140140FE
:101A30002DE9F05F00F080FB664B674F674CDFF8E5
:101A4000A081DFF8A091B0F1000A4FF000064FF03E
:101A500001054FF4805B07D001282FD0022858D011
:101A6000BAF1030F29D17FE0002204215948FEF783
:101A7000B4FD002259463846FEF7AFFD00224FF470
:101A800000613846FEF7A9FD00224FF48061384618
:101A9000FEF7A3FD2670012204214E48FEF79DFDAE
:101AA0000121032000F01CFB0021652000F0F8FA62
:101AB000257088F8005089F8006082E00022042137
:101AC0001846FEF78AFD002259463846FEF785FD86
:101AD00000224FF400613846FEF77FFD00224FF4EC
:101AE00080613846FEF779FD267001225946384656
:101AF000FEF773FD1A21032000F0F2FA01216520A0
:101B000000F0CEFA25701A2188F8001089F80050EC
:101B100057E0002204211846FEF75FFD59460022D7
:101B2000BB463846FEF759FD4FF4006700223946A0
:101B30005846FEF752FD002279105846FEF74DFD3B
:101B40002670012239465846FEF747FD332103200F
:101B500000F0C6FA0221652000F0A2FA25703321B8
:101B600088F8001002212AE0002204211846FEF71E
:101B700034FD59460022BB463846FEF72EFD0022B2
:101B80004FF400615846FEF728FD4FF480670022AD
:101B900039465846FEF721FD26700122394658463F
:101BA000FEF71BFD4C21032000F09AFA032165206B
:101BB00000F076FA25704C2188F80010032189F88E
:101BC00000105146652000F06BFA012800D000207B
:101BD000BDE8F09F0014014000100140000000200B
:101BE00001000020020000200B460146012807D01A
:101BF000032909D065280BD111461846FFF718BFF5
:101C00001146184600F006B811461846FFF724BEE4
:101C1000704700002DE9F04100F08CFA04001B48E9
:101C20001B4E4FF000051AD001220421FEF7D5FC0F
:101C30000121032000F054FA0021652000F030FA61
:101C400014490120307008701348057021460120A6
:101C500000F002FA012800D00020BDE8F081002247
:101C60000421FEF7BAFC0D4F00224FF48051384694
:101C7000FEF7B3FC0022F9143846FEF7AEFC002252
:101C800039153846FEF7A9FC3570DFE7001401402E
:101C90000000002001000020020000200010014090
:101CA00004490A685206FCD5024AC1B2121D1160ED
:101CB0007047000000380140034610B5002002467E
:101CC00006E000BF13F8014B521C2044C0B292B290
:101CD0008A42F7D310BD032070470000FEF790FC46
:101CE000FFF70AFBFFF742FAFFF7A6FAFFF7C6FA7B
:101CF000FFF7E0FABC480068C16841F02001C1600C
:101D000000F000FBDFF8E4A200244FF00108DFF848
:101D1000E0B2B84F4FF48069AAF1030500F00AFB66
:101D20003220FEF7EFFA9AF80000564601281ED13D
:101D3000B1A0FFF7AFFC3470002204215846FEF733
:101D40004CFC00224FF480513846FEF746FC00223E
:101D50004FF400613846FEF740FC00224946384601
:101D6000FEF73BFC2C700021012000F075F9707823
:101D700001281ED1A4A0FFF78DFC7470002204215D
:101D80005846FEF72AFC00224FF480513846FEF7F1
:101D900024FC00224FF400613846FEF71EFC0022AE
:101DA00049463846FEF719FC2C700021012000F04E
:101DB00053F9B07801281ED193A0FFF76BFCB470E3
:101DC000002204215846FEF708FC00224FF48051FF
:101DD0003846FEF702FC00224FF400613846FEF759
:101DE000FCFB002249463846FEF7F7FB2C70002129
:101DF000012000F031F9F07801281ED186A0FFF70C
:101E000049FCF470002204215846FEF7E6FB00224C
:101E10004FF480513846FEF7E0FB00224FF400619A
:101E20003846FEF7DAFB002249463846FEF7D5FB76
:101E30002C700021012000F00FF93078022830D1F9
:101E400079A0FFF727FC3470002204215846FEF7E2
:101E5000C4FB00224FF480513846FEF7BEFB00223F
:101E60004FF400613846FEF7B8FB00224946384679
:101E7000FEF7B3FB2C70012204215846FEF7ADFBA0
:101E80000121032000F02CF90021652000F008F961
:101E900085F8008085F801800121AC70084600F0CB
:101EA000DBF87078022831D163A0FFF7F3FB747080
:101EB000002204215846FEF790FB00224FF4805187
:101EC0003846FEF78AFB00224FF400613846FEF7E1
:101ED00084FB002249463846FEF77FFB01222C7026
:101EE00011033846FEF779FB1A21032000F0F8F8B9
:101EF0000121652000F0D4F885F800801A2169706E
:101F0000012185F80280084600F0A6F8B078022882
:101F100031D149A0FFF7BEFBB4700022042158461E
:101F2000FEF75BFB00224FF480513846FEF755FB6D
:101F300000224FF400613846FEF74FFB002249466D
:101F40003846FEF74AFB01222C70D1023846FEF7D4
:101F500044FB3321032000F0C3F80221652000F088
:101F60009FF885F80080332068700220A870012156
:101F7000084600F071F8F07802287FF4CFAE32A066
:101F8000FFF788FBF470002204215846FEF725FB7A
:101F900000224FF480513846FEF71FFB00224FF419
:101FA00000613846FEF719FB00224E464946384686
:101FB000FEF713FB2C70012231463846FEF70DFB6D
:101FC0004C21032000F08CF80321652000F068F814
:101FD00085F800804C2068700320A8700121084615
:101FE00000F03AF89AE60000B0000020030000205C
:101FF00000140140001001403120B5B5B0B4C5A5B2
:10200000B5AFC6F0000000003320B5B5B0B4C5A52B
:10201000B5AFC6F0000000003420B5B5B0B4C5A51A
:10202000B5AFC6F0000000003120B5B5B0B4C5A50D
:10203000B0B4CFC2000000003320B5B5B0B4C5A520
:10204000B0B4CFC2000000003420B5B5B0B4C5A50F
:10205000B0B4CFC20000000010B5104A0C460146D3
:1020600012780020012A14D000F008F9012100F0B4
:1020700005F9002100F002F9012100F0FFF854B148
:102080005FF0010100F0FAF802460321072000F09A
:10209000ABF9012010BD0021F4E70000280000206A
:1020A00010B50E4A0C46014612780020012A12D0C3
:1020B00000F0E4F8042100F0E1F8002100F0DEF87F
:1020C000012100F0DBF8214600F0D8F80246032198
:1020D000072000F089F9012010BD00002800002031
:1020E00010B5134A0C46014612780020012A1DD073
:1020F00000F0C4F8022100F0C1F8002100F0BEF8A1
:10210000042100F0BBF8210E00F0B8F8C4F3074139
:1021100000F0B4F8C4F3072100F0B0F8E1B200F029
:10212000ADF802460321072000F05EF9012010BD42
:10213000280000200078704700787047FFF7FABA4F
:1021400030B538B131B1884202D98C18844212D2EC
:10215000002305E0002030BDCD5CC5545B1C9BB264
:102160009342F9D330BD8B1813F8014C8318521EDB
:1021700003F8014C92B2002AF5D130BD00210028AD
:1021800006D000E0491C10F8012B002AFAD10846BD
:102190007047000010B5002422A0FFF7EFFF82B2C5
:1021A00020A1204600F05CF8C4B220A0FFF7E6FFB3
:1021B00082B21EA1204600F053F8C4B220A0FFF75F
:1021C000DDFF82B21EA1204600F04AF8C4B21EA074
:1021D000FFF7D4FF82B21CA1204600F041F8C4B240
:1021E0001BA0FFF7CBFF82B219A1204600F038F800
:1021F000C4B219A0FFF7C2FF82B217A1204600F0B7
:102200002FF8C4B215A0FFF7B9FF82B213A1204680
:1022100000F026F8C2B20321BDE81040012000F012
:10222000E3B800007B2270223A2200003661666427
:10223000646236687979746435746D6D00000000ED
:10224000222C2276223A2200312E302E300000003D
:10225000222C226D223A0000320000007D00000096
:1022600070B50446044815462044801DFFF768FFFA
:10227000601980B270BD0000FE020020024A0244D4
:10228000401C917180B27047FE0200200749D1E9DD
:1022900001329A4209D00648824202D3A0F20710C6
:1022A00088608A6812F8010B8A6070471C00002061
:1022B000FE0200200B4910B50B680B490A689C1AF6
:1022C000012C0ED09A4203D9D31AB3F5837F08D8D4
:1022D000064B9A4202D3A3F207120A6002F8010BDE
:1022E0000A6010BD2400002020000020FE02002013
:1022F00001B56423012269460148FEF7D8FE08BDF6
:10230000B0000020064905480860064908600649F3
:10231000002008700549FF2008707047F701002071
:102320002000002024000020280000201F000020A2
:10233000704700002DE9F0410024294E294D4FF44B
:10234000837706E0FFF7A2FF014628883154401C3E
:1023500028802888B84203D800F068F80028F1D116
:102360002888072839D328E0305D552801D0641C1F
:1023700006E030194278AA2AF9D1827812B1A41C59
:10238000A4B21AE0027943791202D21D1A4497B21C
:10239000B7F5877F0BD8B94213DB791E89B2FFF7F7
:1023A0008BFC2744B91911F8011C884201D0E41CA8
:1023B000E6E72046FFF7CAF9BCB22888011B0729C7
:1023C000D2DA2888001B0204120C2A8005D03119A9
:1023D000BDE8F0410248FFF7B3BEBDE8F081000060
:1023E000F00000201800002070B50F4D55232B7011
:1023F000AA236B70A970E870100A28716A71D21D47
:1024000094B2601E81B22846FFF756FC291901F8E4
:10241000010C002C07D003E02878FFF769FF6D1C42
:10242000641EA4B2F8D270BDFE0200200448D0E9B8
:102430000110814201D00120704700207047000048
:102440001C00002000000000000000000102030446
:10245000060708090000000001020304010103024D
:102460006504000084240008000000203000000003
:10247000C4160008B424000830000020080700003B
:10248000D416000800000000000000000100000059
:1024900010000000000000000024F4000000000014
:1024A000000000000000000000000000000000002C
:0424B0000000000028
:0400000508000131BD
:00000001FF
